:020000040800F2
:1000000000500020250200082D020008FD0D000808
:10001000490200084D0200086502000800000000C7
:100020000000000000000000000000007D02000849
:100030008102000800000000851000088902000805
:100040009902000899020008990200089902000824
:100050009902000899020008990200089902000814
:100060009902000899020008990200089902000804
:1000700099020008990200089902000899020008F4
:1000800099020008990200089902000899020008E4
:1000900099020008990200089902000899020008D4
:1000A00099020008990200089902000899020008C4
:1000B00099020008990200089902000899020008B4
:1000C00099020008990200089902000899020008A4
:1000D00099020008850B0008090C0008910C000823
:1000E0009902000899020008990200080000000027
:1000F0000000000000000000000000000000000000
:1001000000000000000000005FF808F100B583B0B7
:1001100000F016FB00F052FB304B314A1360314ABD
:100120001360314B314A03E0116819600433043223
:100130002F498B42F8D32A4B1A682E4B9A4204D18E
:10014000284B1A682C4B9A4200D0FEE7234B2B4ACF
:1001500013602B4A13602B4B02E000221A60043319
:10016000294A9342F9D3254B1B6813B9244B1B68CA
:1001700003B1FEE700F02EFB01A8694600F012FB78
:10018000224C234B1C1BA410002504E01F4B53F8EA
:10019000253098470135AC42F8DC1E4C1E4B1C1B29
:1001A000A410002504E01B4B53F825309847013577
:1001B000AC42F8DC0198009900F0EAFD0546174CC6
:1001C000174B1C1BA41004E0013C144B53F82430C3
:1001D0009847002CF8DC284600F0DEFABABADECAEE
:1001E000000000202800002000000020E01200088D
:1001F0002C00002078563412325476982C000020BF
:10020000A80900202C000020AC090020C40200082E
:10021000C4020008C4020008CC020008CC02000896
:10022000CC02000808B5FFF771FF00BF00BEFEE773
:100230001EF0040F0CBFEFF30880EFF30980714646
:10024000124A104700BEFEE700BEFEE71EF0040F94
:100250000CBFEFF30880EFF3098071460C4A10479A
:1002600000BEFEE71EF0040F0CBFEFF30880EFF3B3
:1002700009807146074A104700BEFEE700BEFEE750
:1002800000BEFEE700BEFEE7704700004502000822
:0C029000610200087902000800BEFEE7D1
:10029C00E0120008000000202C000020E0120008F2
:1002AC0000000000000000002C000020AC09002021
:1002BC000000000000000000190D00085D0E000891
:1002CC00F8B505460C46474B98421BD003F58063A6
:1002DC00984217D003F58063984213D003F58063DE
:1002EC0098420FD003F5806398420BD003F58063DE
:1002FC00984207D003F58063984203D03A48B22164
:10030C0000F052FAE3788BB1042B0FD0282B0DD0D0
:10031C00482B0BD0142B09D0102B07D01C2B05D03D
:10032C00182B03D03048B32100F03EFA23881BB9B8
:10033C002D48B42100F038FAE37803F00F0630466C
:10034C0013F0100F0AD0A378013BDBB2022B03D9B8
:10035C002548BB2100F028FAA07830432378E3B17C
:10036C002E68002216E001239340218819409942FF
:10037C000FD197000F21B94026EA010600FA07F1C8
:10038C000E43E178282901D16B6102E0482900D1A4
:10039C002B610132072AE6D92E602388FF2B20D946
:1003AC006F6800211AE001F10802012393402288B2
:1003BC001A409A4211D14FEA810E0F2202FA0EF620
:1003CC0027EA060200FA0EF71743E278282A00D132
:1003DC006B61E278482A00D12B6101310729E2D9FF
:1003EC006F60F8BD000801407811000838B504466C
:1003FC000D46144B98421CD003F58063984218D0DC
:10040C0003F58063984214D003F58063984210D0B2
:10041C0003F5806398420CD003F58063984208D0B2
:10042C0003F58063984204D0074840F2691100F04C
:10043C00BBF925B904484FF4B57100F0B5F9256145
:10044C0038BD00BF000801407811000838B50446DB
:10045C000D46144B98421CD003F58063984218D07B
:10046C0003F58063984214D003F58063984210D052
:10047C0003F5806398420CD003F58063984208D052
:10048C0003F58063984204D0074840F2791100F0DC
:10049C008BF925B904484FF4BD7100F085F96561FD
:1004AC0038BD00BF000801407811000838B504467B
:1004BC000D46431E012B40F29080042800F08D80E5
:1004CC00082800F08A80634B984200F08680203325
:1004DC00984200F08280604B98427ED080339842E4
:1004EC007BD05E4B984278D003F58073984274D0E1
:1004FC0003F58073984270D0594B98426DD003F538
:10050C008063984269D0B0F5805F66D0B0F5EA1F81
:10051C0063D0B0F5EB1F60D0B0F5004F5DD0514B00
:10052C0098425AD00133984257D00233984254D053
:10053C000433984251D0083398424ED0B0F1201F6A
:10054C004BD03033984248D0474B984245D003F5B6
:10055C008073984241D003F5007398423DD0434BD1
:10056C0098423AD003F57063984236D0B0F5011F2B
:10057C0033D03F4B984230D0013398422DD00233C8
:10058C0098422AD00433984227D00833984224D07A
:10059C001033984221D0203398421ED040339842D9
:1005AC001BD08033984218D003F58073984214D036
:1005BC0003F50073984210D003F5806398420CD079
:1005CC0003F50063984208D003F58053984204D099
:1005DC00284840F22A2100F0E7F8012D04D92548DB
:1005EC0040F22B2100F0E0F8002C02DA224BDB6900
:1005FC0001E0214B5B68C4F30340A2B204F4401148
:10060C00B1F5401F07D123F070631B48416821F0FE
:10061C007061416011E014F4801F06D00321814009
:10062C0023EA010343F0706307E0610D090102FA4C
:10063C0001F123EA010343F070631DB1610D09015F
:10064C008A401343002C02DA0B4AD36138BD0A4AA4
:10065C00536038BD10001400400016000001180053
:10066C0000081A00010020000001300000112000D9
:10067C0001000080781100080000014038B50446E4
:10068C000D460E4B034003B920B90D4840F24A41C8
:10069C0000F08AF8012D04D9094840F24B4100F0D2
:1006AC0083F825B1074B9A6914439C6138BD054A00
:1006BC00936923EA0404946138BD00BF0200C0FFB3
:1006CC00AC1100080010024038B504460D460E4B24
:1006DC00184200D120B90D4840F2694100F064F88D
:1006EC00012D04D9094840F26A4100F05DF825B1AA
:1006FC00074BDA691443DC6138BD054AD36923EA38
:10070C000404D46138BD00BF00360181AC1100086F
:10071C0000100240BFF34F8F0449CA6802F4E06234
:10072C00034B1343CB60BFF34F8FFEE700ED00E0AC
:10073C000400FA0508B50B4B1B680B4A934206D113
:10074C000A4A084B1A600A4B1B68984708BD074AAF
:10075C00934205D10022034B1A6072B6FFF7DAFF01
:10076C0008BD00BFA40900205CF63EAD5066938422
:10077C0004F0FF1F08B5034A034B1A6072B6FFF76B
:10078C00C9FF00BF5CF63EADA4090020FEE700BF28
:10079C0008B50120FFF7FAFF01230360014B0B6042
:1007AC00704700BF0400002008B5FFF7F1FF00BF41
:1007BC0008B500F073F8024B024A9A6008BD00BFFE
:1007CC0000ED00E00000000808B500F08FF808BD4F
:1007DC0082B00023019300932C4A136843F48033B6
:1007EC0013602A4B1B6803F400330093019B013305
:1007FC000193009B1BB9019BB3F5A06FF1D1234B67
:10080C001B6813F4003F02D00123009301E0002386
:10081C000093009B012B36D11D4B1A6842F010023D
:10082C001A601A6822F003021A601A6842F0020277
:10083C001A60A3F580535A685A605A685A605A680D
:10084C0042F480625A605A6822F47C125A605A68E8
:10085C0042F488125A601A6842F080721A600B4B8C
:10086C001B6813F0007FFAD0084B5A6822F0030281
:10087C005A605A6842F002025A60044B5B6803F0FB
:10088C000C03082BF9D102B0704700BF00100240D6
:10089C000020024008B5FFF79BFF08BD08B5104BC0
:1008AC001A6842F001021A6059680E4A0A405A60EE
:1008BC001A6822F0847222F480321A601A6822F4C8
:1008CC0080221A605A6822F4FE025A604FF41F020A
:1008DC009A60FFF7DFFF4FF00062034B9A6008BD90
:1008EC00001002400000FFF800ED00E01F4B5B68B9
:1008FC0003F00C03042B06D0082B08D03BBB1C4A7E
:10090C001C4B1A6026E01A4A1A4B1A6022E0174A4E
:10091C0053685268C3F38343023312F4803F05D10A
:10092C00154A02FB03F3134A136013E00F4A526893
:10093C0012F4003F05D0104A02FB03F30D4A13607A
:10094C0008E00B4A02FB03F30A4A136002E0084A70
:10095C00084B1A60054B5B68C3F30313074AD25C60
:10096C00D2B204490B68D3400B60704700100240B0
:10097C0000127A001C00002000093D000C00002031
:10098C0000220270704700BF10B400240460416064
:10099C005201826004765DF8044B704738B504460A
:1009AC000D4600F21940FFF7EBFF04F21A40FFF777
:1009BC00E7FFC4F81454144B9D421CD008D8A3F57F
:1009CC0000639D420FD003F580639D420FD019E068
:1009DC000E4B9D4213D003F568439D4212D1002368
:1009EC0084F818340EE0012384F818340AE002234A
:1009FC0084F8183406E0032384F8183402E0042346
:100A0C0084F81834204638BD004C0040005000409B
:100A1C0001280FD14FF6FF7399420BD110B5064C3C
:100A2C0020460649FFF7BAFF04F21C400449FFF7C1
:100A3C00B5FF10BD704700BF3400002000380140E6
:100A4C000044004090F8183413B1042B0DD806E084
:100A5C00D0F81424054B93FBF1F191607047D0F85A
:100A6C001424034B93FBF1F19160704700A24A04EC
:100A7C000051250201283ED1F0B583B040F21C4450
:100A8C001F4B04FB00344FF400300121FFF71CFE18
:100A9C0004200121FFF7F2FD01200146FFF7EEFDD6
:100AAC000426ADF8046002278DF8067018238DF823
:100ABC000730144D28460DEB0601FFF701FC082307
:100ACC00ADF804308DF806708DF8076028460DEBF4
:100ADC000601FFF7F5FB20464FF4E131FFF7B2FFBB
:100AEC00D4F8142400211161D4F8143442F20C020D
:100AFC00DA60204601E00020704703B0F0BD00BF73
:100B0C003400002000080140D0F814341A6812F0A8
:100B1C00800FF9D059607047F8B507460E46154658
:100B2C00002404E03846315DFFF7EEFF0134AC429F
:100B3C00F8DBF8BD70B505460E461446C3B130213E
:100B4C00FFF7E2FF28467821FFF7DEFF10E0013CBB
:100B5C00A30026FA03F101F00F01092904D8284655
:100B6C003031FFF7D1FF03E028463731FFF7CCFFD8
:100B7C00002CECDC70BD00BF10B41F4BD3F8143448
:100B8C001A6812F0200F17D01B4CD4F80424511CF7
:100B9C005868C0B2224482F80002B1F5007F00D13F
:100BAC000021154AC2F80414D2F80C24914203D146
:100BBC000121114A82F810141A6812F0800F17D014
:100BCC000D49D1F80824D1F800148A4204D1DA680E
:100BDC0022F08002DA600BE0511C0748825CD2B232
:100BEC005A60B1F5007F00D10021034BC3F8081403
:100BFC005DF8044B704700BF3400002010B4204B4C
:100C0C00D3F830381A6812F0200F17D01C4CD4F8D7
:100C1C002028511C5868C0B2224482F81C06B1F539
:100C2C00007F00D10021164AC2F82018D2F82828DB
:100C3C00914203D10121124A82F82C181A6812F041
:100C4C00800F19D00E49D1F82428D1F81C188A42EB
:100C5C0004D1DA6822F08002DA600DE0511C0848F9
:100C6C00024492F81C24D2B25A60B1F5007F00D134
:100C7C000021034BC3F824185DF8044B704700BFE8
:100C8C003400002010B4204BD3F84C3C1A6812F0FE
:100C9C00200F17D01C4CD4F83C2C511C5868C0B2F7
:100CAC00224482F8380AB1F5007F00D10021164A9F
:100CBC00C2F83C1CD2F8442C914203D10121124AB7
:100CCC0082F8481C1A6812F0800F19D00E49D1F81E
:100CDC00402CD1F8381C8A4204D1DA6822F0800208
:100CEC00DA600DE0511C0848024492F83828D2B260
:100CFC005A60B1F5007F00D10021034BC3F8401CB2
:100D0C005DF8044B704700BF3400002008B501208B
:100D1C004FF6FF71FFF77CFE08BD00BFF0B583B046
:100D2C0008200121FFF7AAFC01200146FFF7A6FCD1
:100D3C0012480121FFF7BAFB1025ADF80450022729
:100D4C008DF806708DF807500D4C204601A9FFF761
:100D5C00B7FA0826ADF804608DF806708DF80750C8
:100D6C00204601A9FFF7ACFA20462946FFF73EFBC7
:100D7C0020463146FFF73AFB03B0F0BD00043000CB
:100D8C00000C014010B582B01448FFF7C7FF00F00B
:100D9C0035F900241BE012480821FFF757FB114BD3
:100DAC000193019B5A1E0192002BFAD10C48082189
:100DBC00FFF71CFB0C4B019303E04FF080520B4BE5
:100DCC005A60019B5A1E0192002BF6D101341D2C46
:100DDC00E1DDFFF7CFFC02B010BD00BF6C080020B6
:100DEC00000C014080841E0040420F0000ED00E02A
:100DFC0000B583B00B481021FFF728FB0A4B019379
:100E0C00019B5A1E0192002BFAD106481021FFF7C4
:100E1C00EDFA054B0193019B5A1E0192002BFAD15E
:100E2C00E8E700BF000C014040420F0001280AD146
:100E3C0008B54FF6FF73994204D1034803490222C7
:100E4C00FFF7A2FD08BD7047700800208C08002039
:100E5C0008B501204FF6FF71FFF7E8FF08BD00BF92
:100E6C00064B1B6823B1064B1B781BB9012002E013
:100E7C00012000E00020024B18707047A0090020F0
:100E8C0024000020014B1878704700BF240000207C
:100E9C0038B50446044B1D6800F060F9024628463C
:100EAC002146FFF739FE38BDCC08002008B50146B5
:100EBC00034B186808220123FFF73CFE08BD00BF56
:100ECC00CC08002008B5034B186803490222FFF731
:100EDC0023FE08BDCC0800203012000870B5044673
:100EEC000D4616461148FFF7D3FF2046FFF7DEFFED
:100EFC00FFF7E8FF2846FFF7D9FFFFF7E3FF30467F
:100F0C00FFF7D4FFFFF7DEFFFFF7DCFF2846A04713
:100F1C0004460748FFF7BCFF2046FFF7C7FFFFF763
:100F2C00D1FF4FF08052034B5A60FAE7DC110008F6
:100F3C00F411000800ED00E030B583B005460A233B
:100F4C0014E00E48FFF7A4FF2846FFF7AFFFFFF7AA
:100F5C00B9FF0B4B019303E04FF08052094B5A60E1
:100F6C00019B5A1E0192002BF6D123465C1E002BCE
:100F7C00E7D14FF0FF3003B030BD00BF00120008C6
:100F8C0040420F0000ED00E038B5036883F3098898
:100F9C0003F1200519625A629862144A9A634FF061
:100FAC000452DA63124A1368013313601148FFF7D5
:100FBC006FFF2846FFF77AFFFFF784FFEFF30980F6
:100FCC00FFF774FFFFF77EFF0B48FFF761FF00246C
:100FDC0006E055F82400FFF769FFFFF773FF0134B3
:100FEC00072CF6DDFFF76EFF38BD00BFE90E0008D9
:100FFC00A0090020101200081412000838B50120B6
:10100C00FFF738FD0546124B1860124B1C68204642
:10101C0000F0A4F8024628462146FFF77DFD0E4855
:10102C00FFF736FF0D4C4FF0805565600C48FFF70D
:10103C002FFF0C480C4B03600C490022FFF7A4FF58
:10104C000B48FFF725FF65600A48FFF721FF38BD05
:10105C00CC080020200000203412000800ED00E035
:10106C00541200089809002058090020450F000868
:10107C006C12000880120008FFF704FF30B1EFF388
:10108C00088020E9F00F80F3088805E0EFF3098071
:10109C0020E9F00F80F30988FFF7E2FE58B1EFF377
:1010AC000880B0E8F00F80F308884FF00000A0F142
:1010BC00070086467047EFF30980B0E8F00F80F325
:1010CC0009884FF00000A0F1030086467047FFF737
:1010DC00D9FE10B1EFF3088001E0EFF30980FFF7C0
:1010EC00E5FEFFF7EFFE0098FFF7E0FEFFF7EAFEE4
:1010FC000198FFF7DBFEFFF7E5FE0298FFF7D6FE3F
:10110C00FFF7E0FE0398FFF7D1FEFFF7DBFE049834
:10111C00FFF7CCFEFFF7D6FE0598FFF7C7FEFFF7EB
:10112C00D1FE0698FFF7C2FEFFF7CCFE0798FFF73B
:10113C00BDFEFFF7C7FEFFF7C5FEFFE7FFF7A2FEF8
:10114C0028B14FF00000A0F10700864670474FF021
:10115C000000A0F103008646704700BF034613F859
:10116C00012B002AFBD1181A013870472E2E2F7331
:10117C00797374656D2F7372632F73746D3332666C
:10118C00312D7374647065726970682F73746D336C
:10119C0032663130785F6770696F2E630000000033
:1011AC002E2E2F73797374656D2F7372632F737476
:1011BC006D333266312D7374647065726970682F8B
:1011CC0073746D3332663130785F7263632E6300F3
:1011DC005461736B20537461727465640D0A4172AF
:1011EC0067730D0A000000005461736B20456E6438
:1011FC00656400005461736B20320D0A4172673ACA
:10120C0000000000535000004578706563746564FD
:10121C00205461736B205265676973746572205337
:10122C00746174650D0A00004B65726E656C206FFD
:10123C006E6C79207461736B207377697463682E9C
:10124C002E2E0D0A0000000053657474696E672021
:10125C007570207461736B2E2E2E0D0A0000000029
:10126C005461736B20737769746368696E672E2E93
:10127C002E0D0A004261636B20746F206B65726ED9
:10128C00656C0D0A00000000446562756767696E45
:10129C0067204F5320496E697469616C697A617477
:1012AC00696F6E2E2E2E0D0A00000000100000003B
:1012BC0000000000017A5200027C0E011B0C0D0094
:1012CC001000000018000000B0FDFFFFE20000005D
:0412DC00000000000E
:1012E000785634123000002000000000000000009A
:1012F00000000000010203040607080900A24A04D6
:0C1300009412000801000000325476989E
:040000050800010DE1
:00000001FF
