:020000040800F2
:1000000000500020250200082D020008FD11000804
:10001000490200084D0200086502000800000000C7
:100020000000000000000000000000000D140008A7
:1000300081020008000000001114000845140008A7
:100040009902000899020008990200089902000824
:100050009902000899020008990200089902000814
:100060009902000899020008990200089902000804
:1000700099020008990200089902000899020008F4
:1000800099020008990200089902000899020008E4
:1000900099020008990200089902000899020008D4
:1000A00099020008990200089902000899020008C4
:1000B00099020008990200089902000899020008B4
:1000C00099020008990200089902000899020008A4
:1000D00099020008DD0E0008610F0008E90F000812
:1000E0009902000899020008990200080000000027
:1000F0000000000000000000000000000000000000
:1001000000000000000000005FF808F100B583B0B7
:1001100000F062FB00F09EFB304B314A1360314A25
:100120001360314B314A03E0116819600433043223
:100130002F498B42F8D32A4B1A682E4B9A4204D18E
:10014000284B1A682C4B9A4200D0FEE7234B2B4ACF
:1001500013602B4A13602B4B02E000221A60043319
:10016000294A9342F9D3254B1B6813B9244B1B68CA
:1001700003B1FEE700F07AFB01A8694600F05EFBE0
:10018000224C234B1C1BA410002504E01F4B53F8EA
:10019000253098470135AC42F8DC1E4C1E4B1C1B29
:1001A000A410002504E01B4B53F825309847013577
:1001B000AC42F8DC0198009900F096FF0546174C18
:1001C000174B1C1BA41004E0013C144B53F82430C3
:1001D0009847002CF8DC284600F02AFBBABADECAA1
:1001E000000000202400002000000020BC150008B2
:1001F00028000020785634123254769828000020C7
:100200003C1500202800002040150020C4020008F2
:10021000C4020008C4020008CC020008CC02000896
:10022000CC02000808B5FFF771FF00BF00BEFEE773
:100230001EF0040F0CBFEFF30880EFF30980714646
:10024000124A104700BEFEE700BEFEE71EF0040F94
:100250000CBFEFF30880EFF3098071460C4A10479A
:1002600000BEFEE71EF0040F0CBFEFF30880EFF3B3
:1002700009807146074A104700BEFEE700BEFEE750
:1002800000BEFEE700BEFEE7704700004502000822
:0C029000610200087902000800BEFEE7D1
:10029C00BC1500080000002028000020BC15000838
:1002AC000000000000000000280000204015002085
:1002BC000000000000000000711000085914000834
:1002CC0010B50446C378012B03D92048752100F0E2
:1002DC00B7FA63780F2B03D91C48762100F0B0FADB
:1002EC00A3780F2B03D91948772100F0A9FAE378EA
:1002FC0003B3174BDA68D243C2F30222C2F10400F3
:10030C000F2323FA02F1637803FA00F2A3780B406F
:10031C0013431B012278DBB20E490A4482F80033E6
:10032C002378580903F01F03012202FA03F341F862
:10033C00203010BD23785A0903F01F030121994086
:10034C0002F12003034A42F8231010BD7814000870
:10035C0000ED00E000E100E0F8B505460C46474B27
:10036C0098421BD003F58063984217D003F5806345
:10037C00984213D003F5806398420FD003F5806345
:10038C0098420BD003F58063984207D003F5806345
:10039C00984203D03A48B22100F052FAE3788BB17C
:1003AC00042B0FD0282B0DD0482B0BD0142B09D09D
:1003BC00102B07D01C2B05D0182B03D03048B321A1
:1003CC0000F03EFA23881BB92D48B42100F038FA0E
:1003DC00E37803F00F06304613F0100F0AD0A37821
:1003EC00013BDBB2022B03D92548BB2100F028FAD4
:1003FC00A07830432378E3B12E68002216E0012365
:10040C0093402188194099420FD197000F21B94090
:10041C0026EA010600FA07F10E43E178282901D1FA
:10042C006B6102E0482900D12B610132072AE6D921
:10043C002E602388FF2B20D96F6800211AE001F170
:10044C0008020123934022881A409A4211D14FEAA4
:10045C00810E0F2202FA0EF627EA060200FA0EF7B8
:10046C001743E278282A00D16B61E278482A00D140
:10047C002B6101310729E2D96F60F8BD00080140FA
:10048C00A014000838B504460D46144B98421CD0F5
:10049C0003F58063984218D003F58063984214D01A
:1004AC0003F58063984210D003F5806398420CD01A
:1004BC0003F58063984208D003F58063984204D01A
:1004CC00074840F2691100F0BBF925B904484FF414
:1004DC00B57100F0B5F9256138BD00BF00080140C9
:1004EC00A014000838B504460D46144B98421CD095
:1004FC0003F58063984218D003F58063984214D0BA
:10050C0003F58063984210D003F5806398420CD0B9
:10051C0003F58063984208D003F58063984204D0B9
:10052C00074840F2791100F08BF925B904484FF4D3
:10053C00BD7100F085F9656138BD00BF0008014050
:10054C00A014000838B504460D46431E012B40F29A
:10055C009080042800F08D80082800F08A80634B7E
:10056C00984200F086802033984200F08280604BE5
:10057C0098427ED0803398427BD05E4B984278D0A4
:10058C0003F58073984274D003F58073984270D051
:10059C00594B98426DD003F58063984269D0B0F501
:1005AC00805F66D0B0F5EA1F63D0B0F5EB1F60D06A
:1005BC00B0F5004F5DD0514B98425AD00133984260
:1005CC0057D00233984254D00433984251D0083358
:1005DC0098424ED0B0F1201F4BD03033984248D0C7
:1005EC00474B984245D003F58073984241D003F5B0
:1005FC00007398423DD0434B98423AD003F5706358
:10060C00984236D0B0F5011F33D03F4B984230D0D2
:10061C00013398422DD0023398422AD004339842A9
:10062C0027D00833984224D01033984221D020335D
:10063C0098421ED0403398421BD08033984218D039
:10064C0003F58073984214D003F50073984210D0D0
:10065C0003F5806398420CD003F50063984208D0F0
:10066C0003F58053984204D0284840F22A2100F028
:10067C00E7F8012D04D9254840F22B2100F0E0F8D1
:10068C00002C02DA224BDB6901E0214B5B68C4F3DE
:10069C000340A2B204F44011B1F5401F07D123F07E
:1006AC0070631B48416821F07061416011E014F4E3
:1006BC00801F06D00321814023EA010343F07063BD
:1006CC0007E0610D090102FA01F123EA010343F08D
:1006DC0070631DB1610D09018A401343002C02DACD
:1006EC000B4AD36138BD0A4A536038BD1000140060
:1006FC00400016000001180000081A00010020003C
:10070C00000130000011200001000080A01400083E
:10071C000000014038B504460D460E4B034003B9AA
:10072C0020B90D4840F24A4100F08AF8012D04D955
:10073C00094840F24B4100F083F825B1074B9A6908
:10074C0014439C6138BD054A936923EA04049461FF
:10075C0038BD00BF0200C0FFD414000800100240D6
:10076C0038B504460D460E4B184200D120B90D4841
:10077C0040F2694100F064F8012D04D9094840F2B7
:10078C006A4100F05DF825B1074BDA691443DC616E
:10079C0038BD054AD36923EA0404D46138BD00BFCF
:1007AC0000360181D414000800100240BFF34F8FB3
:1007BC000449CA6802F4E062034B1343CB60BFF3F5
:1007CC004F8FFEE700ED00E00400FA0508B50B4B77
:1007DC001B680B4A934206D10A4A084B1A600A4B13
:1007EC001B68984708BD074A934205D10022034B6A
:1007FC001A6072B6FFF7DAFF08BD00BF381500208B
:10080C005CF63EAD5066938404F0FF1F08B5034AB6
:10081C00034B1A6072B6FFF7C9FF00BF5CF63EAD22
:10082C0038150020FEE700BF08B50120FFF7FAFFDE
:10083C0001230360014B0B60704700BF04000020D4
:10084C0008B5FFF7F1FF00BF08B500F073F8024BD5
:10085C00024A9A6008BD00BF00ED00E000000008ED
:10086C0008B500F08FF808BD82B000230193009307
:10087C002C4A136843F4803313602A4B1B6803F42F
:10088C0000330093019B01330193009B1BB9019B27
:10089C00B3F5A06FF1D1234B1B6813F4003F02D0CA
:1008AC000123009301E000230093009B012B36D120
:1008BC001D4B1A6842F010021A601A6822F00302EB
:1008CC001A601A6842F002021A60A3F580535A6843
:1008DC005A605A685A605A6842F480625A605A6880
:1008EC0022F47C125A605A6842F488125A601A68D0
:1008FC0042F080721A600B4B1B6813F0007FFAD029
:10090C00084B5A6822F003025A605A6842F00202FD
:10091C005A60044B5B6803F00C03082BF9D102B04E
:10092C00704700BF001002400020024008B5FFF7DE
:10093C009BFF08BD08B5104B1A6842F001021A6003
:10094C0059680E4A0A405A601A6822F0847222F4DE
:10095C0080321A601A6822F480221A605A6822F4D3
:10096C00FE025A604FF41F029A60FFF7DFFF4FF050
:10097C000062034B9A6008BD001002400000FFF8B3
:10098C0000ED00E01F4B5B6803F00C03042B06D05A
:10099C00082B08D03BBB1C4A1C4B1A6026E01A4A99
:1009AC001A4B1A6022E0174A53685268C3F3834308
:1009BC00023312F4803F05D1154A02FB03F3134AAC
:1009CC00136013E00F4A526812F4003F05D0104A2E
:1009DC0002FB03F30D4A136008E00B4A02FB03F31E
:1009EC000A4A136002E0084A084B1A60054B5B6820
:1009FC00C3F30313074AD25CD2B204490B68D34049
:100A0C000B6070470010024000127A001C0000209E
:100A1C0000093D000C00002000220270704700BF4E
:100A2C0010B50446237813F0FF0F02D000F0A4FC9D
:100A3C00F8E700F0B3FC237813F0FF0F02D000F0BE
:100A4C00B3FCEFE70123237000F0AEFC10BD00BF38
:100A5C0000230370704700BF00230376704700BF6C
:100A6C0008B500F07DFCFFF7F7FF00F08DFC08BD2A
:100A7C0010B40024046041605201826004765DF879
:100A8C00044B704710B50446E0604068A3681844F6
:100A9C00A0F14003236140F8202C002240F81C2CCC
:100AAC0040F8182C40F8142C40F8102C40F8081C76
:100ABC00064A40F80C2C4FF0045240F8042C04F178
:100ACC000C0000F083FC0123237610BD6D0A000896
:100ADC0008B500F051FC08BD38B504460D4600F2CF
:100AEC001940FFF799FF04F21A40FFF795FFC4F87D
:100AFC001454144B9D421CD008D8A3F500639D429E
:100B0C000FD003F580639D420FD019E00E4B9D4230
:100B1C0013D003F568439D4212D1002384F8183496
:100B2C000EE0012384F818340AE0022384F8183408
:100B3C0006E0032384F8183402E0042384F8183404
:100B4C00204638BD004C00400050004001281FD109
:100B5C004FF6FF7399421BD110B50E4C20460E492F
:100B6C00FFF7BAFF04F21C400C49FFF7B5FF04F67F
:100B7C0038000B49FFF7B0FF04F654400949FFF762
:100B8C00ABFF04F5835010300749FFF7A5FF10BDEC
:100B9C00704700BF30000020003801400044004086
:100BAC0000480040004C00400050004090F81834C1
:100BBC0013B1042B0DD806E0D0F81424054B93FB8D
:100BCC00F1F191607047D0F81424034B93FBF1F1D1
:100BDC009160704700A24A0400512502F0B583B021
:100BEC00044690F81834012B3CD013B1022B6FD073
:100BFC00A5E04FF480400121FFF78CFD042001217A
:100C0C00FFF788FD01200146FFF784FD4FF40073C8
:100C1C00ADF8003002268DF8026018238DF80330F1
:100C2C00544D28466946FFF797FB4FF48063ADF8A7
:100C3C0000308DF8026004238DF803302846694695
:100C4C00FFF78AFB25238DF8043001238DF807303C
:100C5C0003238DF8053000238DF8063001A8FFF72B
:100C6C002FFB6CE04FF400300121FFF779FD0420DD
:100C7C000121FFF74FFD01200146FFF74BFD042634
:100C8C00ADF8006002278DF8027018238DF8033040
:100C9C00384D28466946FFF75FFB0823ADF8003056
:100CAC008DF802708DF8036028466946FFF754FBF7
:100CBC0026238DF8043001238DF8073000238DF89E
:100CCC0005308DF806300DEB0600FFF7F9FA36E02B
:100CDC004FF480200121FFF743FD08200121FFF78D
:100CEC0019FD01200146FFF715FD4FF48063ADF8A7
:100CFC00003002268DF8026018238DF803301E4D4B
:100D0C0028466946FFF728FB4FF40063ADF8003026
:100D1C008DF8026004238DF8033028466946FFF7EE
:100D2C001BFB27238DF8043001238DF8073000239B
:100D3C008DF805308DF8063001A8FFF7C1FA204672
:100D4C004FF4E131FFF732FFD4F814240023136180
:100D5C00D4F8142442F22C01D160C4F80034C4F845
:100D6C000834C4F80434C4F80C3484F8103403B0D8
:100D7C00F0BD00BF00080140000C014010B5012877
:100D8C0009D010B102280CD011E040F21C440B4BDE
:100D9C0004FB00340CE040F21C44084B04FB003410
:100DAC0006E040F21C44054B04FB003400E0002438
:100DBC002046FFF713FF204610BD00BF3000002077
:100DCC002DE9F04704468846174600F21949484673
:100DDC00FFF726FE00261DE0D4F800A440F2FF1316
:100DEC009A4502D00AF1010503E0002501E0FFF766
:100DFC006FFED4F808349D42F9D018F8063004F888
:100E0C000A30C4F80054D4F81424D36843F0800397
:100E1C00D3600136BE42DFDB4846FFF719FEBDE862
:100E2C00F08700BF2DE9F0410446884600F21947CF
:100E3C003846FFF7F5FDD4F8006440F2FF139E42EC
:100E4C0001D0751C03E0002501E0FFF741FED4F84A
:100E5C0008349D42F9D004F80680C4F80054D4F844
:100E6C001424D36843F08003D3603846FFF7F0FDB9
:100E7C00BDE8F081F8B505460C4600F21A47384635
:100E8C00FFF7CEFDD5F80C640BE000F063FA34B13B
:100E9C00A04204DB0D4800F069FA0020F8BDFFF712
:100EAC0017FED5F804349E42EFD0731C2E4496F8EE
:100EBC000002C4B2B3F5007F00D10023C5F80C3496
:100ECC003846FFF7C5FD2046F8BD00BF04150008E5
:100EDC0010B41F4BD3F814341A6812F0200F17D02B
:100EEC001B4CD4F80424511C5868C0B2224482F81C
:100EFC000002B1F5007F00D10021154AC2F804149C
:100F0C00D2F80C24914203D10121114A82F8101419
:100F1C001A6812F0800F17D00D49D1F80824D1F8B7
:100F2C0000148A4204D1DA6822F08002DA600BE005
:100F3C00511C0748825CD2B25A60B1F5007F00D1D7
:100F4C000021034BC3F808145DF8044B704700BF35
:100F5C003000002010B4204BD3F830381A6812F04F
:100F6C00200F17D01C4CD4F82028511C5868C0B244
:100F7C00224482F81C06B1F5007F00D10021164AEC
:100F8C00C2F82018D2F82828914203D10121124A24
:100F9C0082F82C181A6812F0800F19D00E49D1F86B
:100FAC002428D1F81C188A4204D1DA6822F0800275
:100FBC00DA600DE0511C0848024492F81C24D2B2AD
:100FCC005A60B1F5007F00D10021034BC3F82418FF
:100FDC005DF8044B704700BF3000002010B4204B6C
:100FEC00D3F84C3C1A6812F0200F17D01C4CD4F8D4
:100FFC003C2C511C5868C0B2224482F8380AB1F516
:10100C00007F00D10021164AC2F83C1CD2F8442CB7
:10101C00914203D10121124A82F8481C1A6812F03D
:10102C00800F19D00E49D1F8402CD1F8381C8A42C7
:10103C0004D1DA6822F08002DA600DE0511C084815
:10104C00024492F83828D2B25A60B1F5007F00D130
:10105C000021034BC3F8401C5DF8044B704700BFE4
:10106C003000002008B501204FF6FF71FFF76EFD30
:10107C0008BD00BFF0B583B008200121FFF74AFB83
:10108C0001200146FFF746FB12480121FFF75AFAEF
:10109C001025ADF8045002278DF806708DF8075016
:1010AC000D4C204601A9FFF757F90826ADF804604E
:1010BC008DF806708DF80750204601A9FFF74CF902
:1010CC0020462946FFF7DEF920463146FFF7DAF9CC
:1010DC0003B0F0BD00043000000C014008B500F076
:1010EC0011F908BD2DE9F0413C48FFF7C3FF002082
:1010FC00FFF744FE05460120FFF740FE064602209E
:10110C00FFF73CFE07464FF0000812E0284600218E
:10111C00FFF7B0FE04465FFA80F828462146FFF739
:10112C0081FE30462146FFF77DFE38462146FFF70B
:10113C0079FE4FFA88F8B8F1710FE7D10A2337E03E
:10114C0027480821FFF7CEF900F004F900F59C546C
:10115C00083400F0FFF8201A0028FADC2048082197
:10116C00FFF790F900F0F6F800F59C54083400F005
:10117C00F1F8201A0028FADC1A4C204600F06EF91F
:10118C00024628462146FFF71BFE174C204600F06E
:10119C0065F9024630462146FFF712FE134C2046F5
:1011AC0000F05CF9024638462146FFF709FE43463B
:1011BC0003F1FF38002BC3D109481021FFF792F936
:1011CC0000F0C8F800F51C44403400F0C3F8201AB5
:1011DC000028FADCFFF71AFBBDE8F081BC140020F4
:1011EC00000C0140441500086C150008941500080B
:1011FC0000B583B00B481021FFF774F90A4B01932B
:10120C00019B5A1E0192002BFAD106481021FFF7C0
:10121C0039F9054B0193019B5A1E0192002BFAD10F
:10122C00E8E700BF000C014040420F00014B18687A
:10123C00704700BFDC140020034B1868034B984226
:10124C0014BF002001207047DC140020E41400209F
:10125C00EFF30980704700BFEFF3098020E9F00F2E
:10126C0080F30988704700BFEFF30980B0E8F00FF6
:10127C0080F30988704700BF80F30988704700BF6E
:10128C0010B5FFF7E9FFFFF7D1FF0446FFF7E0FFCA
:10129C0060600E4B1B7813F0FF0F09D00C4B1A68D3
:1012AC000C4B1968896891601A600022074B1A7000
:1012BC00084B1A6806490A6092681A60FFF7B6FF75
:1012CC004068FFF7D9FFFFF7CFFF10BD34150020A2
:1012DC00E0140020DC14002008B5FFF703FF08BD64
:1012EC0001280AD108B54FF6FF73994204D103487F
:1012FC0003490222FFF7BCFB08BD7047C014002055
:10130C00F014002008B562B60C4B1B680C4AA2FB0B
:10131C0003235B0B013BB3F1807F09D2094A536075
:10132C00F021094B83F823100023936007231360EB
:10133C00064807490022FFF7A5FB08BD1C0000204A
:10134C005917B7D110E000E000ED00E0C014002008
:10135C00E5120008014B1868704700BF30150020DB
:10136C0008B5FFF763FF006808BD00BF10B5044661
:10137C00FFF7F6FF046010BD4FF08052014B5A602E
:10138C00704700BF00ED00E008B50122024B1A7057
:10139C00FFF7F2FFFEE700BF341500200022014BDF
:1013AC001A70704721000020064B1B7813F0FF0FBA
:1013BC0006D00022034B1A704FF08052024B5A6039
:1013CC00704700BF2000002000ED00E010B504467F
:1013DC00FFF7E4FF084B1B6843B9074B1C60074B36
:1013EC001C60A4600020FFF777FF02E09A689C6005
:1013FC00A260FFF7D9FF10BDDC140020E014002020
:10140C00704700BF08B50A4B1B7813F0FF0F0BD0C9
:10141C00FFF736FFFFF710FF10B16FF0060301E086
:10142C006FF002039E4608BD0122024B1A7008BDE4
:10143C00210000202000002008B5034A1368013366
:10144C001360FFF799FF08BD3015002008B5012087
:10145C004FF6FF71FFF744FF08BD00BF034613F8BA
:10146C00012B002AFBD1181A013870472E2E2F732E
:10147C00797374656D2F7372632F73746D33326669
:10148C00312D7374647065726970682F6D69736344
:10149C002E6300002E2E2F73797374656D2F73726B
:1014AC00632F73746D333266312D7374647065728F
:1014BC006970682F73746D3332663130785F677082
:1014CC00696F2E63000000002E2E2F7379737465E4
:1014DC006D2F7372632F73746D333266312D737489
:1014EC00647065726970682F73746D333266313055
:1014FC00785F7263632E6300301500084769766568
:10150C006E20696E707574206275666665722064F3
:10151C00617461427566666572206973204E554C24
:10152C004C0000005561727420726561642074690E
:10153C006D6564206F757400486572652049206183
:10154C006D2077726974696E67207468696E677351
:10155C0020666F722055617274310D0A0000000014
:10156C0048657265204920616D2077726974696ED7
:10157C0067207468696E677320666F72205561729C
:10158C0074320D0A00000000486572652049206124
:10159C006D2077726974696E67207468696E677301
:1015AC0020666F722055617274330D0A00000000C2
:1015BC00785634122C0000200000000000000000BF
:1015CC0000000000010203040607080900A24A04F7
:0815DC00010100003254769871
:040000050800010DE1
:00000001FF
